{
  "_format": "hh-sol-artifact-1",
  "contractName": "MyToken",
  "sourceName": "contracts/MyToken.sol",
  "abi": [
    {
      "inputs": [
        {
          "internalType": "address",
          "name": "initialOwner",
          "type": "address"
        }
      ],
      "stateMutability": "nonpayable",
      "type": "constructor"
    },
    {
      "inputs": [],
      "name": "ERC721EnumerableForbiddenBatchMint",
      "type": "error"
    },
    {
      "inputs": [
        {
          "internalType": "address",
          "name": "sender",
          "type": "address"
        },
        {
          "internalType": "uint256",
          "name": "tokenId",
          "type": "uint256"
        },
        {
          "internalType": "address",
          "name": "owner",
          "type": "address"
        }
      ],
      "name": "ERC721IncorrectOwner",
      "type": "error"
    },
    {
      "inputs": [
        {
          "internalType": "address",
          "name": "operator",
          "type": "address"
        },
        {
          "internalType": "uint256",
          "name": "tokenId",
          "type": "uint256"
        }
      ],
      "name": "ERC721InsufficientApproval",
      "type": "error"
    },
    {
      "inputs": [
        {
          "internalType": "address",
          "name": "approver",
          "type": "address"
        }
      ],
      "name": "ERC721InvalidApprover",
      "type": "error"
    },
    {
      "inputs": [
        {
          "internalType": "address",
          "name": "operator",
          "type": "address"
        }
      ],
      "name": "ERC721InvalidOperator",
      "type": "error"
    },
    {
      "inputs": [
        {
          "internalType": "address",
          "name": "owner",
          "type": "address"
        }
      ],
      "name": "ERC721InvalidOwner",
      "type": "error"
    },
    {
      "inputs": [
        {
          "internalType": "address",
          "name": "receiver",
          "type": "address"
        }
      ],
      "name": "ERC721InvalidReceiver",
      "type": "error"
    },
    {
      "inputs": [
        {
          "internalType": "address",
          "name": "sender",
          "type": "address"
        }
      ],
      "name": "ERC721InvalidSender",
      "type": "error"
    },
    {
      "inputs": [
        {
          "internalType": "uint256",
          "name": "tokenId",
          "type": "uint256"
        }
      ],
      "name": "ERC721NonexistentToken",
      "type": "error"
    },
    {
      "inputs": [
        {
          "internalType": "address",
          "name": "owner",
          "type": "address"
        },
        {
          "internalType": "uint256",
          "name": "index",
          "type": "uint256"
        }
      ],
      "name": "ERC721OutOfBoundsIndex",
      "type": "error"
    },
    {
      "inputs": [
        {
          "internalType": "address",
          "name": "owner",
          "type": "address"
        }
      ],
      "name": "OwnableInvalidOwner",
      "type": "error"
    },
    {
      "inputs": [
        {
          "internalType": "address",
          "name": "account",
          "type": "address"
        }
      ],
      "name": "OwnableUnauthorizedAccount",
      "type": "error"
    },
    {
      "anonymous": false,
      "inputs": [
        {
          "indexed": true,
          "internalType": "address",
          "name": "owner",
          "type": "address"
        },
        {
          "indexed": true,
          "internalType": "address",
          "name": "approved",
          "type": "address"
        },
        {
          "indexed": true,
          "internalType": "uint256",
          "name": "tokenId",
          "type": "uint256"
        }
      ],
      "name": "Approval",
      "type": "event"
    },
    {
      "anonymous": false,
      "inputs": [
        {
          "indexed": true,
          "internalType": "address",
          "name": "owner",
          "type": "address"
        },
        {
          "indexed": true,
          "internalType": "address",
          "name": "operator",
          "type": "address"
        },
        {
          "indexed": false,
          "internalType": "bool",
          "name": "approved",
          "type": "bool"
        }
      ],
      "name": "ApprovalForAll",
      "type": "event"
    },
    {
      "anonymous": false,
      "inputs": [
        {
          "indexed": false,
          "internalType": "uint256",
          "name": "_fromTokenId",
          "type": "uint256"
        },
        {
          "indexed": false,
          "internalType": "uint256",
          "name": "_toTokenId",
          "type": "uint256"
        }
      ],
      "name": "BatchMetadataUpdate",
      "type": "event"
    },
    {
      "anonymous": false,
      "inputs": [
        {
          "indexed": false,
          "internalType": "uint256",
          "name": "_tokenId",
          "type": "uint256"
        }
      ],
      "name": "MetadataUpdate",
      "type": "event"
    },
    {
      "anonymous": false,
      "inputs": [
        {
          "indexed": true,
          "internalType": "address",
          "name": "previousOwner",
          "type": "address"
        },
        {
          "indexed": true,
          "internalType": "address",
          "name": "newOwner",
          "type": "address"
        }
      ],
      "name": "OwnershipTransferred",
      "type": "event"
    },
    {
      "anonymous": false,
      "inputs": [
        {
          "indexed": true,
          "internalType": "address",
          "name": "from",
          "type": "address"
        },
        {
          "indexed": true,
          "internalType": "address",
          "name": "to",
          "type": "address"
        },
        {
          "indexed": true,
          "internalType": "uint256",
          "name": "tokenId",
          "type": "uint256"
        }
      ],
      "name": "Transfer",
      "type": "event"
    },
    {
      "inputs": [
        {
          "internalType": "address",
          "name": "to",
          "type": "address"
        },
        {
          "internalType": "uint256",
          "name": "tokenId",
          "type": "uint256"
        }
      ],
      "name": "approve",
      "outputs": [],
      "stateMutability": "nonpayable",
      "type": "function"
    },
    {
      "inputs": [
        {
          "internalType": "address",
          "name": "owner",
          "type": "address"
        }
      ],
      "name": "balanceOf",
      "outputs": [
        {
          "internalType": "uint256",
          "name": "",
          "type": "uint256"
        }
      ],
      "stateMutability": "view",
      "type": "function"
    },
    {
      "inputs": [],
      "name": "baseExtension",
      "outputs": [
        {
          "internalType": "string",
          "name": "",
          "type": "string"
        }
      ],
      "stateMutability": "view",
      "type": "function"
    },
    {
      "inputs": [],
      "name": "baseTokenURI",
      "outputs": [
        {
          "internalType": "string",
          "name": "",
          "type": "string"
        }
      ],
      "stateMutability": "view",
      "type": "function"
    },
    {
      "inputs": [
        {
          "internalType": "uint256",
          "name": "tokenId",
          "type": "uint256"
        }
      ],
      "name": "burn",
      "outputs": [],
      "stateMutability": "nonpayable",
      "type": "function"
    },
    {
      "inputs": [],
      "name": "cost",
      "outputs": [
        {
          "internalType": "uint256",
          "name": "",
          "type": "uint256"
        }
      ],
      "stateMutability": "view",
      "type": "function"
    },
    {
      "inputs": [],
      "name": "flipSaleState",
      "outputs": [],
      "stateMutability": "nonpayable",
      "type": "function"
    },
    {
      "inputs": [
        {
          "internalType": "uint256",
          "name": "tokenId",
          "type": "uint256"
        }
      ],
      "name": "getApproved",
      "outputs": [
        {
          "internalType": "address",
          "name": "",
          "type": "address"
        }
      ],
      "stateMutability": "view",
      "type": "function"
    },
    {
      "inputs": [],
      "name": "getTokenArray",
      "outputs": [
        {
          "internalType": "uint256[]",
          "name": "",
          "type": "uint256[]"
        }
      ],
      "stateMutability": "view",
      "type": "function"
    },
    {
      "inputs": [
        {
          "internalType": "address",
          "name": "owner",
          "type": "address"
        },
        {
          "internalType": "address",
          "name": "operator",
          "type": "address"
        }
      ],
      "name": "isApprovedForAll",
      "outputs": [
        {
          "internalType": "bool",
          "name": "",
          "type": "bool"
        }
      ],
      "stateMutability": "view",
      "type": "function"
    },
    {
      "inputs": [],
      "name": "isSaleActive",
      "outputs": [
        {
          "internalType": "bool",
          "name": "",
          "type": "bool"
        }
      ],
      "stateMutability": "view",
      "type": "function"
    },
    {
      "inputs": [],
      "name": "maxPerMint",
      "outputs": [
        {
          "internalType": "uint256",
          "name": "",
          "type": "uint256"
        }
      ],
      "stateMutability": "view",
      "type": "function"
    },
    {
      "inputs": [],
      "name": "maxSupply",
      "outputs": [
        {
          "internalType": "uint256",
          "name": "",
          "type": "uint256"
        }
      ],
      "stateMutability": "view",
      "type": "function"
    },
    {
      "inputs": [],
      "name": "name",
      "outputs": [
        {
          "internalType": "string",
          "name": "",
          "type": "string"
        }
      ],
      "stateMutability": "view",
      "type": "function"
    },
    {
      "inputs": [],
      "name": "owner",
      "outputs": [
        {
          "internalType": "address",
          "name": "",
          "type": "address"
        }
      ],
      "stateMutability": "view",
      "type": "function"
    },
    {
      "inputs": [
        {
          "internalType": "uint256",
          "name": "tokenId",
          "type": "uint256"
        }
      ],
      "name": "ownerOf",
      "outputs": [
        {
          "internalType": "address",
          "name": "",
          "type": "address"
        }
      ],
      "stateMutability": "view",
      "type": "function"
    },
    {
      "inputs": [
        {
          "internalType": "address",
          "name": "_user",
          "type": "address"
        }
      ],
      "name": "removeWhitelistUser",
      "outputs": [],
      "stateMutability": "nonpayable",
      "type": "function"
    },
    {
      "inputs": [],
      "name": "renounceOwnership",
      "outputs": [],
      "stateMutability": "nonpayable",
      "type": "function"
    },
    {
      "inputs": [
        {
          "internalType": "address",
          "name": "to",
          "type": "address"
        },
        {
          "internalType": "string",
          "name": "uri",
          "type": "string"
        }
      ],
      "name": "safeMint",
      "outputs": [],
      "stateMutability": "nonpayable",
      "type": "function"
    },
    {
      "inputs": [
        {
          "internalType": "address",
          "name": "from",
          "type": "address"
        },
        {
          "internalType": "address",
          "name": "to",
          "type": "address"
        },
        {
          "internalType": "uint256",
          "name": "tokenId",
          "type": "uint256"
        }
      ],
      "name": "safeTransferFrom",
      "outputs": [],
      "stateMutability": "nonpayable",
      "type": "function"
    },
    {
      "inputs": [
        {
          "internalType": "address",
          "name": "from",
          "type": "address"
        },
        {
          "internalType": "address",
          "name": "to",
          "type": "address"
        },
        {
          "internalType": "uint256",
          "name": "tokenId",
          "type": "uint256"
        },
        {
          "internalType": "bytes",
          "name": "data",
          "type": "bytes"
        }
      ],
      "name": "safeTransferFrom",
      "outputs": [],
      "stateMutability": "nonpayable",
      "type": "function"
    },
    {
      "inputs": [
        {
          "internalType": "address",
          "name": "operator",
          "type": "address"
        },
        {
          "internalType": "bool",
          "name": "approved",
          "type": "bool"
        }
      ],
      "name": "setApprovalForAll",
      "outputs": [],
      "stateMutability": "nonpayable",
      "type": "function"
    },
    {
      "inputs": [
        {
          "internalType": "string",
          "name": "_newBaseExtension",
          "type": "string"
        }
      ],
      "name": "setBaseExtension",
      "outputs": [],
      "stateMutability": "nonpayable",
      "type": "function"
    },
    {
      "inputs": [
        {
          "internalType": "uint256",
          "name": "_newCost",
          "type": "uint256"
        }
      ],
      "name": "setCost",
      "outputs": [],
      "stateMutability": "nonpayable",
      "type": "function"
    },
    {
      "inputs": [
        {
          "internalType": "uint256",
          "name": "_newmaxPerMint",
          "type": "uint256"
        }
      ],
      "name": "setmaxMintAmount",
      "outputs": [],
      "stateMutability": "nonpayable",
      "type": "function"
    },
    {
      "inputs": [
        {
          "internalType": "bytes4",
          "name": "interfaceId",
          "type": "bytes4"
        }
      ],
      "name": "supportsInterface",
      "outputs": [
        {
          "internalType": "bool",
          "name": "",
          "type": "bool"
        }
      ],
      "stateMutability": "view",
      "type": "function"
    },
    {
      "inputs": [],
      "name": "symbol",
      "outputs": [
        {
          "internalType": "string",
          "name": "",
          "type": "string"
        }
      ],
      "stateMutability": "view",
      "type": "function"
    },
    {
      "inputs": [
        {
          "internalType": "uint256",
          "name": "index",
          "type": "uint256"
        }
      ],
      "name": "tokenByIndex",
      "outputs": [
        {
          "internalType": "uint256",
          "name": "",
          "type": "uint256"
        }
      ],
      "stateMutability": "view",
      "type": "function"
    },
    {
      "inputs": [
        {
          "internalType": "address",
          "name": "owner",
          "type": "address"
        },
        {
          "internalType": "uint256",
          "name": "index",
          "type": "uint256"
        }
      ],
      "name": "tokenOfOwnerByIndex",
      "outputs": [
        {
          "internalType": "uint256",
          "name": "",
          "type": "uint256"
        }
      ],
      "stateMutability": "view",
      "type": "function"
    },
    {
      "inputs": [
        {
          "internalType": "uint256",
          "name": "tokenId",
          "type": "uint256"
        }
      ],
      "name": "tokenURI",
      "outputs": [
        {
          "internalType": "string",
          "name": "",
          "type": "string"
        }
      ],
      "stateMutability": "view",
      "type": "function"
    },
    {
      "inputs": [],
      "name": "totalSupply",
      "outputs": [
        {
          "internalType": "uint256",
          "name": "",
          "type": "uint256"
        }
      ],
      "stateMutability": "view",
      "type": "function"
    },
    {
      "inputs": [
        {
          "internalType": "address",
          "name": "from",
          "type": "address"
        },
        {
          "internalType": "address",
          "name": "to",
          "type": "address"
        },
        {
          "internalType": "uint256",
          "name": "tokenId",
          "type": "uint256"
        }
      ],
      "name": "transferFrom",
      "outputs": [],
      "stateMutability": "nonpayable",
      "type": "function"
    },
    {
      "inputs": [
        {
          "internalType": "address",
          "name": "newOwner",
          "type": "address"
        }
      ],
      "name": "transferOwnership",
      "outputs": [],
      "stateMutability": "nonpayable",
      "type": "function"
    },
    {
      "inputs": [
        {
          "internalType": "address",
          "name": "_user",
          "type": "address"
        }
      ],
      "name": "whitelistUser",
      "outputs": [],
      "stateMutability": "nonpayable",
      "type": "function"
    },
    {
      "inputs": [
        {
          "internalType": "address",
          "name": "",
          "type": "address"
        }
      ],
      "name": "whitelisted",
      "outputs": [
        {
          "internalType": "bool",
          "name": "",
          "type": "bool"
        }
      ],
      "stateMutability": "view",
      "type": "function"
    },
    {
      "inputs": [],
      "name": "withdraw",
      "outputs": [],
      "stateMutability": "payable",
      "type": "function"
    }
  ],
  "bytecode": "0x60806040526040518060400160405280600581526020017f2e6a736f6e000000000000000000000000000000000000000000000000000000815250600e90816200004a9190620004ef565b5066038d7ea4c68000601055600a6011553480156200006857600080fd5b5060405162003d4938038062003d4983398181016040528101906200008e919062000640565b806040518060400160405280600781526020017f4d79546f6b656e000000000000000000000000000000000000000000000000008152506040518060400160405280600381526020017f4d544b000000000000000000000000000000000000000000000000000000000081525081600090816200010c9190620004ef565b5080600190816200011e9190620004ef565b505050600073ffffffffffffffffffffffffffffffffffffffff168173ffffffffffffffffffffffffffffffffffffffff1603620001965760006040517f1e4fbdf70000000000000000000000000000000000000000000000000000000081526004016200018d919062000683565b60405180910390fd5b620001a781620001af60201b60201c565b5050620006a0565b6000600b60009054906101000a900473ffffffffffffffffffffffffffffffffffffffff16905081600b60006101000a81548173ffffffffffffffffffffffffffffffffffffffff021916908373ffffffffffffffffffffffffffffffffffffffff1602179055508173ffffffffffffffffffffffffffffffffffffffff168173ffffffffffffffffffffffffffffffffffffffff167f8be0079c531659141344cd1fd0a4f28419497f9722a3daafe3b4186f6b6457e060405160405180910390a35050565b600081519050919050565b7f4e487b7100000000000000000000000000000000000000000000000000000000600052604160045260246000fd5b7f4e487b7100000000000000000000000000000000000000000000000000000000600052602260045260246000fd5b60006002820490506001821680620002f757607f821691505b6020821081036200030d576200030c620002af565b5b50919050565b60008190508160005260206000209050919050565b60006020601f8301049050919050565b600082821b905092915050565b600060088302620003777fffffffffffffffffffffffffffffffffffffffffffffffffffffffffffffffff8262000338565b62000383868362000338565b95508019841693508086168417925050509392505050565b6000819050919050565b6000819050919050565b6000620003d0620003ca620003c4846200039b565b620003a5565b6200039b565b9050919050565b6000819050919050565b620003ec83620003af565b62000404620003fb82620003d7565b84845462000345565b825550505050565b600090565b6200041b6200040c565b62000428818484620003e1565b505050565b5b8181101562000450576200044460008262000411565b6001810190506200042e565b5050565b601f8211156200049f57620004698162000313565b620004748462000328565b8101602085101562000484578190505b6200049c620004938562000328565b8301826200042d565b50505b505050565b600082821c905092915050565b6000620004c460001984600802620004a4565b1980831691505092915050565b6000620004df8383620004b1565b9150826002028217905092915050565b620004fa8262000275565b67ffffffffffffffff81111562000516576200051562000280565b5b620005228254620002de565b6200052f82828562000454565b600060209050601f83116001811462000567576000841562000552578287015190505b6200055e8582620004d1565b865550620005ce565b601f198416620005778662000313565b60005b82811015620005a1578489015182556001820191506020850194506020810190506200057a565b86831015620005c15784890151620005bd601f891682620004b1565b8355505b6001600288020188555050505b505050505050565b600080fd5b600073ffffffffffffffffffffffffffffffffffffffff82169050919050565b60006200060882620005db565b9050919050565b6200061a81620005fb565b81146200062657600080fd5b50565b6000815190506200063a816200060f565b92915050565b600060208284031215620006595762000658620005d6565b5b6000620006698482850162000629565b91505092915050565b6200067d81620005fb565b82525050565b60006020820190506200069a600083018462000672565b92915050565b61369980620006b06000396000f3fe60806040526004361061020f5760003560e01c80636352211e11610118578063c87b56dd116100a0578063d5abeb011161006f578063d5abeb0114610768578063d936547e14610793578063da3ef23f146107d0578063e985e9c5146107f9578063f2fde38b146108365761020f565b8063c87b56dd146106ac578063cf37d74e146106e9578063d204c45e14610714578063d547cfb71461073d5761020f565b80638da5cb5b116100e75780638da5cb5b146105d957806395d89b4114610604578063a22cb4651461062f578063b88d4fde14610658578063c6682862146106815761020f565b80636352211e1461051f57806370a082311461055c578063715018a6146105995780637f00c7a6146105b05761020f565b806334918dfd1161019b57806344a0d68a1161016a57806344a0d68a1461043a5780634a4c560d146104635780634f6ccce71461048c578063507e094f146104c9578063564566a8146104f45761020f565b806334918dfd146103c75780633ccfd60b146103de57806342842e0e146103e857806342966c68146104115761020f565b806313faede6116101e257806313faede6146102e257806318160ddd1461030d57806323b872dd146103385780632f745c591461036157806330cc7ae01461039e5761020f565b806301ffc9a71461021457806306fdde0314610251578063081812fc1461027c578063095ea7b3146102b9575b600080fd5b34801561022057600080fd5b5061023b60048036038101906102369190612936565b61085f565b604051610248919061297e565b60405180910390f35b34801561025d57600080fd5b50610266610871565b6040516102739190612a29565b60405180910390f35b34801561028857600080fd5b506102a3600480360381019061029e9190612a81565b610903565b6040516102b09190612aef565b60405180910390f35b3480156102c557600080fd5b506102e060048036038101906102db9190612b36565b61091f565b005b3480156102ee57600080fd5b506102f7610935565b6040516103049190612b85565b60405180910390f35b34801561031957600080fd5b5061032261093b565b60405161032f9190612b85565b60405180910390f35b34801561034457600080fd5b5061035f600480360381019061035a9190612ba0565b610948565b005b34801561036d57600080fd5b5061038860048036038101906103839190612b36565b610a4a565b6040516103959190612b85565b60405180910390f35b3480156103aa57600080fd5b506103c560048036038101906103c09190612bf3565b610af3565b005b3480156103d357600080fd5b506103dc610b56565b005b6103e6610b8a565b005b3480156103f457600080fd5b5061040f600480360381019061040a9190612ba0565b610bd2565b005b34801561041d57600080fd5b5061043860048036038101906104339190612a81565b610bf2565b005b34801561044657600080fd5b50610461600480360381019061045c9190612a81565b610c09565b005b34801561046f57600080fd5b5061048a60048036038101906104859190612bf3565b610c1b565b005b34801561049857600080fd5b506104b360048036038101906104ae9190612a81565b610c7e565b6040516104c09190612b85565b60405180910390f35b3480156104d557600080fd5b506104de610cf4565b6040516104eb9190612b85565b60405180910390f35b34801561050057600080fd5b50610509610cfa565b604051610516919061297e565b60405180910390f35b34801561052b57600080fd5b5061054660048036038101906105419190612a81565b610d0d565b6040516105539190612aef565b60405180910390f35b34801561056857600080fd5b50610583600480360381019061057e9190612bf3565b610d1f565b6040516105909190612b85565b60405180910390f35b3480156105a557600080fd5b506105ae610dd9565b005b3480156105bc57600080fd5b506105d760048036038101906105d29190612a81565b610ded565b005b3480156105e557600080fd5b506105ee610dff565b6040516105fb9190612aef565b60405180910390f35b34801561061057600080fd5b50610619610e29565b6040516106269190612a29565b60405180910390f35b34801561063b57600080fd5b5061065660048036038101906106519190612c4c565b610ebb565b005b34801561066457600080fd5b5061067f600480360381019061067a9190612dc1565b610ed1565b005b34801561068d57600080fd5b50610696610eee565b6040516106a39190612a29565b60405180910390f35b3480156106b857600080fd5b506106d360048036038101906106ce9190612a81565b610f7c565b6040516106e09190612a29565b60405180910390f35b3480156106f557600080fd5b506106fe610f8e565b60405161070b9190612f02565b60405180910390f35b34801561072057600080fd5b5061073b60048036038101906107369190612fc5565b610fe6565b005b34801561074957600080fd5b5061075261104b565b60405161075f9190612a29565b60405180910390f35b34801561077457600080fd5b5061077d6110d9565b60405161078a9190612b85565b60405180910390f35b34801561079f57600080fd5b506107ba60048036038101906107b59190612bf3565b6110df565b6040516107c7919061297e565b60405180910390f35b3480156107dc57600080fd5b506107f760048036038101906107f29190613021565b6110ff565b005b34801561080557600080fd5b50610820600480360381019061081b919061306a565b61111a565b60405161082d919061297e565b60405180910390f35b34801561084257600080fd5b5061085d60048036038101906108589190612bf3565b6111ae565b005b600061086a82611234565b9050919050565b606060008054610880906130d9565b80601f01602080910402602001604051908101604052809291908181526020018280546108ac906130d9565b80156108f95780601f106108ce576101008083540402835291602001916108f9565b820191906000526020600020905b8154815290600101906020018083116108dc57829003601f168201915b5050505050905090565b600061090e82611295565b506109188261131d565b9050919050565b610931828261092c61135a565b611362565b5050565b60105481565b6000600880549050905090565b600073ffffffffffffffffffffffffffffffffffffffff168273ffffffffffffffffffffffffffffffffffffffff16036109ba5760006040517f64a0ae920000000000000000000000000000000000000000000000000000000081526004016109b19190612aef565b60405180910390fd5b60006109ce83836109c961135a565b611374565b90508373ffffffffffffffffffffffffffffffffffffffff168173ffffffffffffffffffffffffffffffffffffffff1614610a44578382826040517f64283d7b000000000000000000000000000000000000000000000000000000008152600401610a3b9392919061310a565b60405180910390fd5b50505050565b6000610a5583610d1f565b8210610a9a5782826040517fa57d13dc000000000000000000000000000000000000000000000000000000008152600401610a91929190613141565b60405180910390fd5b600660008473ffffffffffffffffffffffffffffffffffffffff1673ffffffffffffffffffffffffffffffffffffffff168152602001908152602001600020600083815260200190815260200160002054905092915050565b610afb61138a565b6000601360008373ffffffffffffffffffffffffffffffffffffffff1673ffffffffffffffffffffffffffffffffffffffff16815260200190815260200160002060006101000a81548160ff02191690831515021790555050565b610b5e61138a565b601260009054906101000a900460ff1615601260006101000a81548160ff021916908315150217905550565b610b9261138a565b3373ffffffffffffffffffffffffffffffffffffffff166108fc479081150290604051600060405180830381858888f19350505050610bd057600080fd5b565b610bed83838360405180602001604052806000815250610ed1565b505050565b610c05600082610c0061135a565b611374565b5050565b610c1161138a565b8060108190555050565b610c2361138a565b6001601360008373ffffffffffffffffffffffffffffffffffffffff1673ffffffffffffffffffffffffffffffffffffffff16815260200190815260200160002060006101000a81548160ff02191690831515021790555050565b6000610c8861093b565b8210610cce576000826040517fa57d13dc000000000000000000000000000000000000000000000000000000008152600401610cc5929190613141565b60405180910390fd5b60088281548110610ce257610ce161316a565b5b90600052602060002001549050919050565b60115481565b601260009054906101000a900460ff1681565b6000610d1882611295565b9050919050565b60008073ffffffffffffffffffffffffffffffffffffffff168273ffffffffffffffffffffffffffffffffffffffff1603610d925760006040517f89c62b64000000000000000000000000000000000000000000000000000000008152600401610d899190612aef565b60405180910390fd5b600360008373ffffffffffffffffffffffffffffffffffffffff1673ffffffffffffffffffffffffffffffffffffffff168152602001908152602001600020549050919050565b610de161138a565b610deb6000611411565b565b610df561138a565b8060118190555050565b6000600b60009054906101000a900473ffffffffffffffffffffffffffffffffffffffff16905090565b606060018054610e38906130d9565b80601f0160208091040260200160405190810160405280929190818152602001828054610e64906130d9565b8015610eb15780601f10610e8657610100808354040283529160200191610eb1565b820191906000526020600020905b815481529060010190602001808311610e9457829003601f168201915b5050505050905090565b610ecd610ec661135a565b83836114d7565b5050565b610edc848484610948565b610ee884848484611646565b50505050565b600e8054610efb906130d9565b80601f0160208091040260200160405190810160405280929190818152602001828054610f27906130d9565b8015610f745780601f10610f4957610100808354040283529160200191610f74565b820191906000526020600020905b815481529060010190602001808311610f5757829003601f168201915b505050505081565b6060610f87826117fd565b9050919050565b6060600f805480602002602001604051908101604052809291908181526020018280548015610fdc57602002820191906000526020600020905b815481526020019060010190808311610fc8575b5050505050905090565b610fee61138a565b6000600c6000815480929190611003906131c8565b9190505590506110138382611910565b61101d818361192e565b600f819080600181540180825580915050600190039060005260206000200160009091909190915055505050565b600d8054611058906130d9565b80601f0160208091040260200160405190810160405280929190818152602001828054611084906130d9565b80156110d15780601f106110a6576101008083540402835291602001916110d1565b820191906000526020600020905b8154815290600101906020018083116110b457829003601f168201915b505050505081565b6103e881565b60136020528060005260406000206000915054906101000a900460ff1681565b61110761138a565b80600e908161111691906133bc565b5050565b6000600560008473ffffffffffffffffffffffffffffffffffffffff1673ffffffffffffffffffffffffffffffffffffffff16815260200190815260200160002060008373ffffffffffffffffffffffffffffffffffffffff1673ffffffffffffffffffffffffffffffffffffffff16815260200190815260200160002060009054906101000a900460ff16905092915050565b6111b661138a565b600073ffffffffffffffffffffffffffffffffffffffff168173ffffffffffffffffffffffffffffffffffffffff16036112285760006040517f1e4fbdf700000000000000000000000000000000000000000000000000000000815260040161121f9190612aef565b60405180910390fd5b61123181611411565b50565b6000634906490660e01b7bffffffffffffffffffffffffffffffffffffffffffffffffffffffff1916827bffffffffffffffffffffffffffffffffffffffffffffffffffffffff1916148061128e575061128d8261198a565b5b9050919050565b6000806112a183611a04565b9050600073ffffffffffffffffffffffffffffffffffffffff168173ffffffffffffffffffffffffffffffffffffffff160361131457826040517f7e27328900000000000000000000000000000000000000000000000000000000815260040161130b9190612b85565b60405180910390fd5b80915050919050565b60006004600083815260200190815260200160002060009054906101000a900473ffffffffffffffffffffffffffffffffffffffff169050919050565b600033905090565b61136f8383836001611a41565b505050565b6000611381848484611c06565b90509392505050565b61139261135a565b73ffffffffffffffffffffffffffffffffffffffff166113b0610dff565b73ffffffffffffffffffffffffffffffffffffffff161461140f576113d361135a565b6040517f118cdaa70000000000000000000000000000000000000000000000000000000081526004016114069190612aef565b60405180910390fd5b565b6000600b60009054906101000a900473ffffffffffffffffffffffffffffffffffffffff16905081600b60006101000a81548173ffffffffffffffffffffffffffffffffffffffff021916908373ffffffffffffffffffffffffffffffffffffffff1602179055508173ffffffffffffffffffffffffffffffffffffffff168173ffffffffffffffffffffffffffffffffffffffff167f8be0079c531659141344cd1fd0a4f28419497f9722a3daafe3b4186f6b6457e060405160405180910390a35050565b600073ffffffffffffffffffffffffffffffffffffffff168273ffffffffffffffffffffffffffffffffffffffff160361154857816040517f5b08ba1800000000000000000000000000000000000000000000000000000000815260040161153f9190612aef565b60405180910390fd5b80600560008573ffffffffffffffffffffffffffffffffffffffff1673ffffffffffffffffffffffffffffffffffffffff16815260200190815260200160002060008473ffffffffffffffffffffffffffffffffffffffff1673ffffffffffffffffffffffffffffffffffffffff16815260200190815260200160002060006101000a81548160ff0219169083151502179055508173ffffffffffffffffffffffffffffffffffffffff168373ffffffffffffffffffffffffffffffffffffffff167f17307eab39ab6107e8899845ad3d59bd9653f200f220920489ca2b5937696c3183604051611639919061297e565b60405180910390a3505050565b60008373ffffffffffffffffffffffffffffffffffffffff163b11156117f7578273ffffffffffffffffffffffffffffffffffffffff1663150b7a0261168a61135a565b8685856040518563ffffffff1660e01b81526004016116ac94939291906134e3565b6020604051808303816000875af19250505080156116e857506040513d601f19601f820116820180604052508101906116e59190613544565b60015b61176c573d8060008114611718576040519150601f19603f3d011682016040523d82523d6000602084013e61171d565b606091505b50600081510361176457836040517f64a0ae9200000000000000000000000000000000000000000000000000000000815260040161175b9190612aef565b60405180910390fd5b805181602001fd5b63150b7a0260e01b7bffffffffffffffffffffffffffffffffffffffffffffffffffffffff1916817bffffffffffffffffffffffffffffffffffffffffffffffffffffffff1916146117f557836040517f64a0ae920000000000000000000000000000000000000000000000000000000081526004016117ec9190612aef565b60405180910390fd5b505b50505050565b606061180882611295565b506000600a60008481526020019081526020016000208054611829906130d9565b80601f0160208091040260200160405190810160405280929190818152602001828054611855906130d9565b80156118a25780601f10611877576101008083540402835291602001916118a2565b820191906000526020600020905b81548152906001019060200180831161188557829003601f168201915b5050505050905060006118b3611d23565b905060008151036118c857819250505061190b565b6000825111156118fd5780826040516020016118e59291906135ad565b6040516020818303038152906040529250505061190b565b61190684611d3a565b925050505b919050565b61192a828260405180602001604052806000815250611da3565b5050565b80600a6000848152602001908152602001600020908161194e91906133bc565b507ff8e1a15aba9398e019f0b49df1a4fde98ee17ae345cb5f6b5e2c27f5033e8ce78260405161197e9190612b85565b60405180910390a15050565b60007f780e9d63000000000000000000000000000000000000000000000000000000007bffffffffffffffffffffffffffffffffffffffffffffffffffffffff1916827bffffffffffffffffffffffffffffffffffffffffffffffffffffffff191614806119fd57506119fc82611dbf565b5b9050919050565b60006002600083815260200190815260200160002060009054906101000a900473ffffffffffffffffffffffffffffffffffffffff169050919050565b8080611a7a5750600073ffffffffffffffffffffffffffffffffffffffff168273ffffffffffffffffffffffffffffffffffffffff1614155b15611bae576000611a8a84611295565b9050600073ffffffffffffffffffffffffffffffffffffffff168373ffffffffffffffffffffffffffffffffffffffff1614158015611af557508273ffffffffffffffffffffffffffffffffffffffff168173ffffffffffffffffffffffffffffffffffffffff1614155b8015611b085750611b06818461111a565b155b15611b4a57826040517fa9fbf51f000000000000000000000000000000000000000000000000000000008152600401611b419190612aef565b60405180910390fd5b8115611bac57838573ffffffffffffffffffffffffffffffffffffffff168273ffffffffffffffffffffffffffffffffffffffff167f8c5be1e5ebec7d5bd14f71427d1e84f3dd0314c0f7b2291e5b200ac8c7c3b92560405160405180910390a45b505b836004600085815260200190815260200160002060006101000a81548173ffffffffffffffffffffffffffffffffffffffff021916908373ffffffffffffffffffffffffffffffffffffffff16021790555050505050565b600080611c14858585611ea1565b9050600073ffffffffffffffffffffffffffffffffffffffff168173ffffffffffffffffffffffffffffffffffffffff1603611c5857611c53846120bb565b611c97565b8473ffffffffffffffffffffffffffffffffffffffff168173ffffffffffffffffffffffffffffffffffffffff1614611c9657611c958185612104565b5b5b600073ffffffffffffffffffffffffffffffffffffffff168573ffffffffffffffffffffffffffffffffffffffff1603611cd957611cd484612265565b611d18565b8473ffffffffffffffffffffffffffffffffffffffff168173ffffffffffffffffffffffffffffffffffffffff1614611d1757611d168585612336565b5b5b809150509392505050565b606060405180602001604052806000815250905090565b6060611d4582611295565b506000611d50611d23565b90506000815111611d705760405180602001604052806000815250611d9b565b80611d7a846123c1565b604051602001611d8b9291906135ad565b6040516020818303038152906040525b915050919050565b611dad838361248f565b611dba6000848484611646565b505050565b60007f80ac58cd000000000000000000000000000000000000000000000000000000007bffffffffffffffffffffffffffffffffffffffffffffffffffffffff1916827bffffffffffffffffffffffffffffffffffffffffffffffffffffffff19161480611e8a57507f5b5e139f000000000000000000000000000000000000000000000000000000007bffffffffffffffffffffffffffffffffffffffffffffffffffffffff1916827bffffffffffffffffffffffffffffffffffffffffffffffffffffffff1916145b80611e9a5750611e9982612588565b5b9050919050565b600080611ead84611a04565b9050600073ffffffffffffffffffffffffffffffffffffffff168373ffffffffffffffffffffffffffffffffffffffff1614611eef57611eee8184866125f2565b5b600073ffffffffffffffffffffffffffffffffffffffff168173ffffffffffffffffffffffffffffffffffffffff1614611f8057611f31600085600080611a41565b6001600360008373ffffffffffffffffffffffffffffffffffffffff1673ffffffffffffffffffffffffffffffffffffffff168152602001908152602001600020600082825403925050819055505b600073ffffffffffffffffffffffffffffffffffffffff168573ffffffffffffffffffffffffffffffffffffffff1614612003576001600360008773ffffffffffffffffffffffffffffffffffffffff1673ffffffffffffffffffffffffffffffffffffffff168152602001908152602001600020600082825401925050819055505b846002600086815260200190815260200160002060006101000a81548173ffffffffffffffffffffffffffffffffffffffff021916908373ffffffffffffffffffffffffffffffffffffffff160217905550838573ffffffffffffffffffffffffffffffffffffffff168273ffffffffffffffffffffffffffffffffffffffff167fddf252ad1be2c89b69c2b068fc378daa952ba7f163c4a11628f55a4df523b3ef60405160405180910390a4809150509392505050565b6008805490506009600083815260200190815260200160002081905550600881908060018154018082558091505060019003906000526020600020016000909190919091505550565b600061210f83610d1f565b90506000600760008481526020019081526020016000205490508181146121f4576000600660008673ffffffffffffffffffffffffffffffffffffffff1673ffffffffffffffffffffffffffffffffffffffff168152602001908152602001600020600084815260200190815260200160002054905080600660008773ffffffffffffffffffffffffffffffffffffffff1673ffffffffffffffffffffffffffffffffffffffff168152602001908152602001600020600084815260200190815260200160002081905550816007600083815260200190815260200160002081905550505b6007600084815260200190815260200160002060009055600660008573ffffffffffffffffffffffffffffffffffffffff1673ffffffffffffffffffffffffffffffffffffffff16815260200190815260200160002060008381526020019081526020016000206000905550505050565b6000600160088054905061227991906135d1565b90506000600960008481526020019081526020016000205490506000600883815481106122a9576122a861316a565b5b9060005260206000200154905080600883815481106122cb576122ca61316a565b5b90600052602060002001819055508160096000838152602001908152602001600020819055506009600085815260200190815260200160002060009055600880548061231a57612319613605565b5b6001900381819060005260206000200160009055905550505050565b6000600161234384610d1f565b61234d91906135d1565b905081600660008573ffffffffffffffffffffffffffffffffffffffff1673ffffffffffffffffffffffffffffffffffffffff168152602001908152602001600020600083815260200190815260200160002081905550806007600084815260200190815260200160002081905550505050565b6060600060016123d0846126b6565b01905060008167ffffffffffffffff8111156123ef576123ee612c96565b5b6040519080825280601f01601f1916602001820160405280156124215781602001600182028036833780820191505090505b509050600082602001820190505b600115612484578080600190039150507f3031323334353637383961626364656600000000000000000000000000000000600a86061a8153600a858161247857612477613634565b5b0494506000850361242f575b819350505050919050565b600073ffffffffffffffffffffffffffffffffffffffff168273ffffffffffffffffffffffffffffffffffffffff16036125015760006040517f64a0ae920000000000000000000000000000000000000000000000000000000081526004016124f89190612aef565b60405180910390fd5b600061250f83836000611374565b9050600073ffffffffffffffffffffffffffffffffffffffff168173ffffffffffffffffffffffffffffffffffffffff16146125835760006040517f73c6ac6e00000000000000000000000000000000000000000000000000000000815260040161257a9190612aef565b60405180910390fd5b505050565b60007f01ffc9a7000000000000000000000000000000000000000000000000000000007bffffffffffffffffffffffffffffffffffffffffffffffffffffffff1916827bffffffffffffffffffffffffffffffffffffffffffffffffffffffff1916149050919050565b6125fd838383612809565b6126b157600073ffffffffffffffffffffffffffffffffffffffff168373ffffffffffffffffffffffffffffffffffffffff160361267257806040517f7e2732890000000000000000000000000000000000000000000000000000000081526004016126699190612b85565b60405180910390fd5b81816040517f177e802f0000000000000000000000000000000000000000000000000000000081526004016126a8929190613141565b60405180910390fd5b505050565b600080600090507a184f03e93ff9f4daa797ed6e38ed64bf6a1f0100000000000000008310612714577a184f03e93ff9f4daa797ed6e38ed64bf6a1f010000000000000000838161270a57612709613634565b5b0492506040810190505b6d04ee2d6d415b85acef81000000008310612751576d04ee2d6d415b85acef8100000000838161274757612746613634565b5b0492506020810190505b662386f26fc10000831061278057662386f26fc10000838161277657612775613634565b5b0492506010810190505b6305f5e10083106127a9576305f5e100838161279f5761279e613634565b5b0492506008810190505b61271083106127ce5761271083816127c4576127c3613634565b5b0492506004810190505b606483106127f157606483816127e7576127e6613634565b5b0492506002810190505b600a8310612800576001810190505b80915050919050565b60008073ffffffffffffffffffffffffffffffffffffffff168373ffffffffffffffffffffffffffffffffffffffff16141580156128c157508273ffffffffffffffffffffffffffffffffffffffff168473ffffffffffffffffffffffffffffffffffffffff1614806128825750612881848461111a565b5b806128c057508273ffffffffffffffffffffffffffffffffffffffff166128a88361131d565b73ffffffffffffffffffffffffffffffffffffffff16145b5b90509392505050565b6000604051905090565b600080fd5b600080fd5b60007fffffffff0000000000000000000000000000000000000000000000000000000082169050919050565b612913816128de565b811461291e57600080fd5b50565b6000813590506129308161290a565b92915050565b60006020828403121561294c5761294b6128d4565b5b600061295a84828501612921565b91505092915050565b60008115159050919050565b61297881612963565b82525050565b6000602082019050612993600083018461296f565b92915050565b600081519050919050565b600082825260208201905092915050565b60005b838110156129d35780820151818401526020810190506129b8565b60008484015250505050565b6000601f19601f8301169050919050565b60006129fb82612999565b612a0581856129a4565b9350612a158185602086016129b5565b612a1e816129df565b840191505092915050565b60006020820190508181036000830152612a4381846129f0565b905092915050565b6000819050919050565b612a5e81612a4b565b8114612a6957600080fd5b50565b600081359050612a7b81612a55565b92915050565b600060208284031215612a9757612a966128d4565b5b6000612aa584828501612a6c565b91505092915050565b600073ffffffffffffffffffffffffffffffffffffffff82169050919050565b6000612ad982612aae565b9050919050565b612ae981612ace565b82525050565b6000602082019050612b046000830184612ae0565b92915050565b612b1381612ace565b8114612b1e57600080fd5b50565b600081359050612b3081612b0a565b92915050565b60008060408385031215612b4d57612b4c6128d4565b5b6000612b5b85828601612b21565b9250506020612b6c85828601612a6c565b9150509250929050565b612b7f81612a4b565b82525050565b6000602082019050612b9a6000830184612b76565b92915050565b600080600060608486031215612bb957612bb86128d4565b5b6000612bc786828701612b21565b9350506020612bd886828701612b21565b9250506040612be986828701612a6c565b9150509250925092565b600060208284031215612c0957612c086128d4565b5b6000612c1784828501612b21565b91505092915050565b612c2981612963565b8114612c3457600080fd5b50565b600081359050612c4681612c20565b92915050565b60008060408385031215612c6357612c626128d4565b5b6000612c7185828601612b21565b9250506020612c8285828601612c37565b9150509250929050565b600080fd5b600080fd5b7f4e487b7100000000000000000000000000000000000000000000000000000000600052604160045260246000fd5b612cce826129df565b810181811067ffffffffffffffff82111715612ced57612cec612c96565b5b80604052505050565b6000612d006128ca565b9050612d0c8282612cc5565b919050565b600067ffffffffffffffff821115612d2c57612d2b612c96565b5b612d35826129df565b9050602081019050919050565b82818337600083830152505050565b6000612d64612d5f84612d11565b612cf6565b905082815260208101848484011115612d8057612d7f612c91565b5b612d8b848285612d42565b509392505050565b600082601f830112612da857612da7612c8c565b5b8135612db8848260208601612d51565b91505092915050565b60008060008060808587031215612ddb57612dda6128d4565b5b6000612de987828801612b21565b9450506020612dfa87828801612b21565b9350506040612e0b87828801612a6c565b925050606085013567ffffffffffffffff811115612e2c57612e2b6128d9565b5b612e3887828801612d93565b91505092959194509250565b600081519050919050565b600082825260208201905092915050565b6000819050602082019050919050565b612e7981612a4b565b82525050565b6000612e8b8383612e70565b60208301905092915050565b6000602082019050919050565b6000612eaf82612e44565b612eb98185612e4f565b9350612ec483612e60565b8060005b83811015612ef5578151612edc8882612e7f565b9750612ee783612e97565b925050600181019050612ec8565b5085935050505092915050565b60006020820190508181036000830152612f1c8184612ea4565b905092915050565b600067ffffffffffffffff821115612f3f57612f3e612c96565b5b612f48826129df565b9050602081019050919050565b6000612f68612f6384612f24565b612cf6565b905082815260208101848484011115612f8457612f83612c91565b5b612f8f848285612d42565b509392505050565b600082601f830112612fac57612fab612c8c565b5b8135612fbc848260208601612f55565b91505092915050565b60008060408385031215612fdc57612fdb6128d4565b5b6000612fea85828601612b21565b925050602083013567ffffffffffffffff81111561300b5761300a6128d9565b5b61301785828601612f97565b9150509250929050565b600060208284031215613037576130366128d4565b5b600082013567ffffffffffffffff811115613055576130546128d9565b5b61306184828501612f97565b91505092915050565b60008060408385031215613081576130806128d4565b5b600061308f85828601612b21565b92505060206130a085828601612b21565b9150509250929050565b7f4e487b7100000000000000000000000000000000000000000000000000000000600052602260045260246000fd5b600060028204905060018216806130f157607f821691505b602082108103613104576131036130aa565b5b50919050565b600060608201905061311f6000830186612ae0565b61312c6020830185612b76565b6131396040830184612ae0565b949350505050565b60006040820190506131566000830185612ae0565b6131636020830184612b76565b9392505050565b7f4e487b7100000000000000000000000000000000000000000000000000000000600052603260045260246000fd5b7f4e487b7100000000000000000000000000000000000000000000000000000000600052601160045260246000fd5b60006131d382612a4b565b91507fffffffffffffffffffffffffffffffffffffffffffffffffffffffffffffffff820361320557613204613199565b5b600182019050919050565b60008190508160005260206000209050919050565b60006020601f8301049050919050565b600082821b905092915050565b6000600883026132727fffffffffffffffffffffffffffffffffffffffffffffffffffffffffffffffff82613235565b61327c8683613235565b95508019841693508086168417925050509392505050565b6000819050919050565b60006132b96132b46132af84612a4b565b613294565b612a4b565b9050919050565b6000819050919050565b6132d38361329e565b6132e76132df826132c0565b848454613242565b825550505050565b600090565b6132fc6132ef565b6133078184846132ca565b505050565b5b8181101561332b576133206000826132f4565b60018101905061330d565b5050565b601f8211156133705761334181613210565b61334a84613225565b81016020851015613359578190505b61336d61336585613225565b83018261330c565b50505b505050565b600082821c905092915050565b600061339360001984600802613375565b1980831691505092915050565b60006133ac8383613382565b9150826002028217905092915050565b6133c582612999565b67ffffffffffffffff8111156133de576133dd612c96565b5b6133e882546130d9565b6133f382828561332f565b600060209050601f8311600181146134265760008415613414578287015190505b61341e85826133a0565b865550613486565b601f19841661343486613210565b60005b8281101561345c57848901518255600182019150602085019450602081019050613437565b868310156134795784890151613475601f891682613382565b8355505b6001600288020188555050505b505050505050565b600081519050919050565b600082825260208201905092915050565b60006134b58261348e565b6134bf8185613499565b93506134cf8185602086016129b5565b6134d8816129df565b840191505092915050565b60006080820190506134f86000830187612ae0565b6135056020830186612ae0565b6135126040830185612b76565b818103606083015261352481846134aa565b905095945050505050565b60008151905061353e8161290a565b92915050565b60006020828403121561355a576135596128d4565b5b60006135688482850161352f565b91505092915050565b600081905092915050565b600061358782612999565b6135918185613571565b93506135a18185602086016129b5565b80840191505092915050565b60006135b9828561357c565b91506135c5828461357c565b91508190509392505050565b60006135dc82612a4b565b91506135e783612a4b565b92508282039050818111156135ff576135fe613199565b5b92915050565b7f4e487b7100000000000000000000000000000000000000000000000000000000600052603160045260246000fd5b7f4e487b7100000000000000000000000000000000000000000000000000000000600052601260045260246000fdfea264697066735822122006720265cad75749d6818ff7f2f15f08bfa417da53f792320681ff5949447dd364736f6c63430008170033",
  "linkReferences": {},
  "deployedLinkReferences": {}
}